:100000000C94BD010C9404020C9404020C940402A0
:100010000C9404020C9404020C9404020C94040248
:100020000C9404020C9404020C94491E0C941C1FA2
:100030000C9430140C9404020C9404020C940402EA
:100040000C9404020C9404020C9404020C94040218
:100050000C9404020C9496140C9404020C94040264
:100060000C9404020C9404020C9404020C940402F8
:100070000C9404020C9404020C9404020C940402E8
:100080000C9404020C9404020C9404020C940402D8
:100090000C9404020C9404020C9404020C940402C8
:1000A0000C9404020C9404020C94040229001E0017
:1000B0001F0020002100220023002400250026002C
:1000C00027002D002E002A0035002B0014001A00F6
:1000D0000800150017001C0018000C001200130087
:1000E0002F00300031004C003900040016000700DA
:1000F00009000A000B000D000E000F003300340051
:10010000000028004B00E10000001D001B0006005D
:100110001900050011001000360037003800E50016
:1001200052004E00E000E300E200000000002C005E
:10013000000000000000E6000151E4005000510002
:100140004F0001003A003B003C003D003E003F00F4
:100150004000410042004300440045004C0049007B
:100160000100010052000100010001000100010036
:100170000100010001000100010001004A0001002E
:10018000500051004F00010001000100010001007A
:10019000010001000100000001004D00010000000D
:1001A00001000100BB5CBD5CBC5C0100AA00A900B1
:1001B000A8000100F400F000F500010001000100BA
:1001C000000000000100000000000000010001002C
:1001D0000100F200F100F3000403300000000E0300
:1001E00054004100440041003600380000000A037A
:1001F00054004100440041000000040309040902C6
:100200006D00040100A0FA090400000103010100CF
:100210000921110100012240000705810308000A9D
:10022000090401000103010200092111010001225A
:100230004D000705820308000A09040200010300BB
:10024000000009211101000122360007058303087F
:10025000000A090403000103000000092111010044
:10026000012239000705840320000112011001005A
:10027000000008EDFE6060030001020301050109B2
:1002800006A101050719E029E71500250195087564
:10029000018102050819012905950575019102954D
:1002A00001750391010507190029F715002501952E
:1002B000F875018102C005010980A10185021601BE
:1002C000002603001A81002A830075109501810021
:1002D000C0050C0901A1018503160100269C021A24
:1002E00001002A9C02751095018100C005010902D8
:1002F000A1010901A1000509190129051500250120
:10030000950575018102950175038101050109308B
:1003100009311581257F95027508810609381581F7
:10032000257F950175088106050C0A38021581257F
:100330007F950175088106C0C005010906A1010568
:100340000719E029E7150025019508750181029537
:1003500001750881010508190129059505750191A7
:10036000029501750391010507190029FF15002663
:10037000FF00950675088100C00011241FBECFEF55
:10038000DAE0DEBFCDBF04B603FE27C080912E02A7
:1003900090912F02A0913002B09131028730904BA2
:1003A000A740B04BD1F410922E0210922F0210925F
:1003B00030021092310214BE84B7877F84BF0FB61B
:1003C000F894A895809160008861809360001092F5
:1003D00060000FBEE0E0F8E3099511E0A0E0B1E0B5
:1003E000E0E9F3E402C005900D92A634B107D9F715
:1003F00022E0A6E4B1E001C01D92AE32B207E1F7FF
:100400000E94781B0C9477210C9400000C94E10658
:10041000229A08950E94E0060C94080281FF03C00E
:100420002A980C94FE032A9AFCCF81E0089581E07B
:1004300008950C9417020E94650D2FEF84E39CE051
:10044000215080409040E1F700C000000C94BA14A5
:100450000F931F93CF93DF938C01FC01C081D18157
:10046000CE010E942112BE010E940504EC01B801D8
:100470000E941902882309F452C0B801CE010E94DB
:100480009106882309F44BC0C531FCE5DF0709F468
:1004900027C1B0F4C130ECE5DE0709F446C008F02E
:1004A00056C0C115DC45B1F181E080934B018093CA
:1004B0004C01C801DF91CF911F910F910C9415024F
:1004C000C53DECE5DE0709F4F0C0B8F4C33D8CE5AA
:1004D000D80709F4AEC0C43DDC4531F7F80182818C
:1004E000882309F4CDC010924C010E9460149093AF
:1004F0004A018093490180E2A9C0C83DFCE5DF07BD
:10050000F1F0C93DDC4581F6F8018281882339F09C
:1005100082E01AC0F801828181110E941B0280E0F2
:10052000DF91CF911F910F910895F8018281882367
:10053000B1F38091E80181608093E801F0CFF80188
:100540008281882361F380E00E94131CE8CFF801C8
:100550008281882309F4ADCF0E944213811102C029
:100560000E9423130E94551390E090931F028093E2
:100570001E02FE01E350FC4580911E028160E231C3
:10058000F10538F4E758FE4D0C94212180911E02AC
:10059000826080931E0280911E020E9459130E9465
:1005A000650DBDCF80911E028460F3CF80911E0245
:1005B0008860EFCF80911E028061EBCF80911E0298
:1005C0008062E7CF80911E028064E3CF80911E029B
:1005D0008068DFCF80911E028C60DBCF80911E028D
:1005E0008E7FD7CF80911E028D7FD3CF80911E0248
:1005F0008B7FCFCF80911E02877FCBCF80911E0251
:100600008F7EC7CF80911E028F7DC3CF80911E0247
:100610008F7BBFCF80911E028F77BBCF80911E0250
:10062000837FB7CF90911E02892F97FB87F980585F
:10063000B0CFF8018281882361F010924B010E94B3
:100640006014909348018093470182E00E949C0AC5
:1006500066CF80914B0181110FC08091470190912D
:1006600048010E946C14883C910530F486E20E9497
:10067000720986E20E944D0A82E00E94A30A4FCFCF
:1006800080914C0181110FC08091490190914A01E4
:100690000E946C14883C910530F487E20E94720934
:1006A00087E20E944D0A80E2E8CFF8018281811141
:1006B0001ACF80914C018111F6CF80914901909120
:1006C0004A010E946C14883C910568F780E20E9400
:1006D000A30A88E20E94720988E20E944D0A1FCF95
:1006E0000E94E712F8019281992381F08A7A91E0C1
:1006F00009F490E090934601811106C089E20E94BE
:1007000070120E94B4120BCF85E3F9CF809146019D
:10071000811104C089E20E947712F3CF85E3FBCFF9
:100720000C940602CF92DF92EF92FF92853030F563
:10073000811125C0909180009F7D90938000282F8B
:1007400030E0AFEFBFEF0E94272142E096958795FA
:10075000779567954A95D1F76C3744E1740798F41B
:10076000CB0169E070E00E94D72070938B0060930A
:100770008A00FF90EF90DF90CF90089584E09091F1
:1007800080009062DACF6A50774D8F4F9F4F982F3D
:10079000872F762F662725EF38E241E050E00E9450
:1007A000FF2069017A01CA01B9010E94C7209B019B
:1007B000AC01C701B6010E94C720672F782F892F8F
:1007C00099276115710521E08207910571F66FEF98
:1007D0007FEFCBCF269A2E9882E28093800089E12A
:1007E000809381008FEF9FEF909387008093860026
:1007F0000C940E190E94EA030C940A0208950C94BA
:100800000E0290E080E008950895972F70E02FE0A9
:10081000929F600D711D1124FB019BE4899FE00DE7
:10082000F11D1124EE0FFF1FE455FF4F85919491A8
:100830000895FC01EE0FFF1FE852FE4F8591949141
:100840000895CF93DF930E9405040E94F205EC0106
:10085000811521E5920708F049C0811530E593071D
:1008600008F021C1883E910508F5803E910570F59C
:10087000883A910570F4853A910508F0A7C0813057
:10088000910521F1009711F1049700F5D0E0C0E047
:100890001DC08D3B910508F4A4C0805C9109C03C4B
:1008A000D105A0F30E941904EC0110C081159043FA
:1008B00088F4C11580E2D80708F0ECC0C03FD1052C
:1008C00028F3CF3FD10509F008F4E2C0CE01DF9153
:1008D000CF910895C11590E4D90708F0E1C0CE0189
:1008E0009927D3FFDAC0EC01D86CF0CF811529E548
:1008F000920740F5811538E5930708F01AC1811574
:1009000044E5940778F4C11583E5D80708F0F8C0EA
:10091000C11592E5D90708F0E2C0DC2FCC27C16FE2
:10092000D06AD4CF811525E5920708F4FDC0811562
:1009300036E5930708F0AACFD82FCC27CC27DF7154
:10094000D062C4CF8B3B9C4509F4F8C0CC3B8CE50E
:10095000D807B8F4C93B9CE5D90709F4F2C008F000
:10096000F3C0C1153AE5D30708F090CFCE0134E0CB
:10097000969587953A95E1F78F70CF70C06ED82F16
:1009800090C0CE3B4CE5D40709F4E1C060F4CC3B09
:100990009CE5D90709F4DEC0CD3BDC4509F076CFF4
:1009A000C0E0D2ED93CFCE0190568115904208F071
:1009B0006DCF8D2F8F710E946D0690E0982F882744
:1009C00088279F719C012C2BE901BACF853A9105AC
:1009D00009F4C3C0863A910509F0C2C0C2E8D0E468
:1009E00075CF883A910509F4BEC0893A910509F49A
:1009F000BDC08A3A910509F4BCC08B3A910509F44F
:100A0000BBC08C3A910509F4BAC08B3B910509F43F
:100A1000B9C08C3B910509F4B8C08D3A910509F431
:100A2000B7C0803B910509F4B6C08E3A910509F430
:100A3000B5C08F3A910509F4B4C0813B910509F422
:100A4000B3C0823B910509F4B2C0833B910509F420
:100A5000B1C0843B910509F4B0C0853B910509F410
:100A6000AFC0863B910509F4AEC0873B910509F400
:100A7000ADC0883B910509F4ACC0893B910509F4F0
:100A8000ABC08A3B910509F4AAC0C0E0D4E41ECFF4
:100A9000D0651CCFCE019F7005CFEC01D06C16CF76
:100AA000DF70D06A13CFE4E096958795EA95E1F779
:100AB00083702C2F26952695237040E2249F900169
:100AC0001124382B8C2F8370C1E0D0E002C0CC0FF2
:100AD000DD1F8A95E2F7C22BD32BDC68F7CECE015F
:100AE0008370992721E030E002C0220F331F8A95DE
:100AF000E2F7C695C69580E2C89FE0011124EBCFCE
:100B0000CE018370992721E030E002C0220F331F0D
:100B10008A95E2F7C695C69590E2C99FE001112437
:100B2000C22BD32BDA68D2CED82FCC27C46FD06A91
:100B3000CDCED82FCC27C06FD06AC8CEC0E0D1EDC3
:100B4000C5CEC0E0D4EDC2CEC0E0D5EDBFCEC0E092
:100B5000D3EDBCCEC0E0D0EDB9CEC1E8D0E4B6CE86
:100B6000C3E8D0E4B3CEC2EED4E4B0CEC9EED4E450
:100B7000ADCECAEED4E4AACEC5EBD4E4A7CEC6EB84
:100B8000D4E4A4CEC3EBD4E4A1CEC4EBD4E49ECE93
:100B9000C7EBD4E49BCECCECD4E498CECDECD4E43B
:100BA00095CEC3E8D5E492CECAE8D5E48FCEC2E9AB
:100BB000D5E48CCEC4E9D5E489CEC1E2D6E486CEB4
:100BC000C3E2D6E483CEC4E2D6E480CEC5E2D6E466
:100BD0007DCEC6E2D6E47ACEC7E2D6E477CECAE2CC
:100BE000D6E474CE8238910549F1B0F48133910591
:100BF00009F462C048F48932910509F456C08A327A
:100C0000910509F460C008958533910509F446C043
:100C10008933910599F00895833E910531F138F4B7
:100C2000803E910591F0823E9105B1F00895863E97
:100C3000910521F1873E910551F1089520911E0201
:100C40002370D9F080EE90E0089520911E0220FFDD
:100C500014C089E390E0089520911E0222FF0DC088
:100C600024FD09C083EE90E0089520911E0222FD2C
:100C700031C024FF02C090E080E0089520911E0260
:100C800023FFFBCF24FDF7CF87EE90E0089520915E
:100C90001E0223FFEECF86EE90E0089520911E0203
:100CA00025FFEBCF89E290E0089520911E0225FFF9
:100CB000E4CF85E390E0089520911E0226FFDDCF6A
:100CC0008AE290E0089520911E0226FFD6CF81E3AC
:100CD00090E0089582EE90E0089590911E0292FFB8
:100CE00006C0282F2871283069F4877F846093FF1D
:100CF00006C0282F2871283161F4877E846194FD15
:100D0000877E0895282F2471243089F78B7F88608F
:100D1000EECF282F2471243191F78B7E8861EFCF9D
:100D200008950F931F93CF938C01FB018281811152
:100D300006C0C1E08C2FCF911F910F910895C091F3
:100D40005A01C11125C006311C4599F70E94900631
:100D500081E080935A010E9460149093590180931E
:100D6000580110924D0110924F0110924E011092B5
:100D700051011092500110925301109252011092A1
:100D80005501109254011092570110925601D2CF82
:100D900080915801909159010E946C148C329140BD
:100DA00040F680914D01E82FF0E0EE0FFF1FE25B6F
:100DB000FE4F118300838F5F80934D01C0E0BACF57
:100DC00008950895CF93DF9385B7806885BF85B771
:100DD000806885BFA2E2B1E047E251E0C1E0D0E027
:100DE0008D91E82FE295EF70F0E061A18F709E0188
:100DF00001C0220F8A95EAF7922F9095962391A32E
:100E000082A1822B82A34A175B0751F7A3E1B1E0CD
:100E100061E070E08D91E82FE295EF70F0E041A184
:100E20008F709B0101C0220F8A95EAF7922F90954F
:100E3000942391A382A1822B82A381E0A232B807DE
:100E400049F7109266011092650110925C011092B0
:100E50005B01109268011092670110925E0110927E
:100E60005D0110926A011092690110926001109266
:100E70005F0110926C0110926B011092620110924E
:100E8000610110926E0110926D0110926401109236
:100E90006301DF91CF910C94FA034F925F927F929E
:100EA0008F929F92AF92BF92CF92DF92EF92FF927A
:100EB0000F931F93CF93DF939BE5492E91E0592E1B
:100EC00022E2E22E21E0F22E01E010E09924939438
:100ED000E201A990B9902E01DE011E921E92F70147
:100EE00081917F01E82FE295EF70F0E091A18F7082
:100EF000980101C0220F8A95EAF7892F822B81A3DE
:100F000082A1822E8094882182A380EA8A95F1F7BB
:100F100083E1C82E81E0D82E90E080E0E60179914F
:100F20006E01472F42954F7050E0EA0178A04D9135
:100F30005C9111977F70E80102C0CC0FDD1F7A959C
:100F4000E2F7BE01672109F072C0B801082E02C0A5
:100F5000660F771F0A94E2F7462B572B11965C9386
:100F60004E9301968F309105C9F681A1882281A206
:100F700082A1282B22A38D919C91A816B90641F03D
:100F800090926F010E9460149093710180937001A0
:100F9000D5E64D16D1E05D0609F09ACF80916F013C
:100FA000882391F180917001909171010E946C14DD
:100FB000069750F180915B0190915C0190936601DE
:100FC0008093650180915D0190915E01909368012D
:100FD0008093670180915F019091600190936A0115
:100FE00080936901809161019091620190936C01FD
:100FF00080936B01809163019091640190936E01E5
:1010000080936D0110926F010E94900381E0DF9147
:10101000CF911F910F91FF90EF90DF90CF90BF90F5
:10102000AF909F908F907F905F904F90089570E069
:1010300060E092CFE82FF0E0EE0FFF1FEB59FE4F7C
:10104000808191810895089590937701809376012E
:101050000895E0917601F0917701309721F00190A9
:10106000F081E02D099480E00895E0917601F091FF
:101070007701309721F00280F381E02D09940895E3
:10108000E0917601F0917701309721F00480F581AD
:10109000E02D09940895209174013091750128176D
:1010A000390771F09093750180937401E091760196
:1010B000F0917701309721F00680F781E02D0994B7
:1010C000089520917201309173012817390771F04A
:1010D0009093730180937201E0917601F091770112
:1010E000309721F00084F185E02D0994089508954A
:1010F0000C94770881E008950E9457140E94E2063C
:101100000E94DE140C940E195F926F927F928F9260
:101110009F92AF92BF92CF92DF92EF92FF920F9386
:101120001F93CF93DF93CDB7DEB72A970FB6F8940E
:10113000DEBF0FBECDBF0E944D070E947A088823F4
:1011400009F47AC099E7A92E91E0B92E10E000E0E9
:1011500088248394912C502E802F0E941A087C01A1
:10116000F501C190D1905F01C816D90609F45EC09F
:101170008091E80181FD0E94230890E080E0CE2468
:10118000DF243401082E02C0660C771C0A94E2F7B3
:10119000960126213721232B09F443C08E835F82D9
:1011A000E620F72081E0EF2809F480E088870E949C
:1011B00060148160782F9A8789874E815F81688566
:1011C0008A850E944309000F111FF801E758FE4F5E
:1011D0008081918168267926718260820E946C16D6
:1011E0000E942908909178018917B9F10E94290875
:1011F000809378012A960FB6F894DEBF0FBECDBF5C
:10120000DF91CF911F910F91FF90EF90DF90CF90E2
:10121000BF90AF909F908F907F906F905F900C9455
:10122000FF0301968F30910509F0ABCF0F5F1F4F81
:101230000530110509F08FCF8FEF89838A831B82D8
:101240000E9460148160782F9D838C8349815A812C
:101250006B818D810E944309C1CF2A960FB6F89405
:10126000DEBF0FBECDBFDF91CF911F910F91FF90D9
:10127000EF90DF90CF90BF90AF909F908F907F9036
:101280006F905F900895CF93DF93CDB7DEB72B9724
:101290000FB6F894DEBF0FBECDBF4F835887698766
:1012A0007A878B871E821D8285E0FE013796DE01DC
:1012B000119601900D928A95E1F749815A816B81CF
:1012C0007C818D819E812B960FB6F894DEBF0FBE78
:1012D000CDBFDF91CF910C940310FC0180819181EF
:1012E0000C946312CF93C82F882309F4D4C082389A
:1012F000C1F40E94290881FDCEC089E30E947012CA
:101300000E94B4122FEF81EE94E021508040904073
:10131000E1F700C0000089E30E947712CF910C949E
:10132000B4128338A1F40E94290880FDB4C083E57B
:101330000E9470120E94B4122FEF81EE94E02150AF
:1013400080409040E1F700C0000083E5E5CF84389D
:10135000A1F40E94290882FD9EC087E40E947012B9
:101360000E94B4122FEF81EE94E021508040904013
:10137000E1F700C0000087E4CFCF8CEF8C0F813AFB
:1013800048F48C2F0E947F18811185C08C2F0E94F9
:101390007012C4CF80E28C0F883048F4C77081E0AF
:1013A00001C0880FCA95EAF70E94EA12B7CF8BE511
:1013B0008C0F833068F481E890E0C53A31F083E81F
:1013C00090E0C63A11F482E890E0CF910C944B087B
:1013D00088E58C0F853108F05EC082EE90E0C83A57
:1013E00009F456C089EE90E0C93A09F451C08AEE7A
:1013F00090E0CA3A09F44CC085EB90E0CB3A09F48E
:1014000047C086EB90E0CC3A09F442C083EB90E011
:10141000CB3BF1F184EB90E0CC3BD1F187EB90E05A
:10142000CD3AB1F18CEC90E0C03B91F18DEC90E0C5
:10143000CE3A71F183E891E0CF3A51F18AE891E038
:10144000C13B31F182E991E0C23B11F184E991E0C5
:10145000C33BF1F081E292E0C43BD1F083E292E041
:10146000C53BB1F084E292E0C63B91F085E292E0A8
:10147000C73B71F086E292E0C83B51F087E292E010
:10148000C93B31F090E080E0CA3B11F48AE292E07F
:10149000CF910C946108CF910895882309F44BC033
:1014A000823871F40E94290881FF45C089E30E94B7
:1014B00070120E94B41289E30E9477120C94B41245
:1014C000833859F40E94290880FF35C083E50E94C3
:1014D00070120E94B41283E5EFCF843859F40E9451
:1014E000290882FF28C087E40E9470120E94B4126B
:1014F00087E4E2CF9CEF980F913AF0F290E2980FD8
:10150000983050F4877091E001C0990F8A95EAF7FE
:10151000892F0E94F012D2CF9BE5980F933020F4D0
:1015200090E080E00C944B08885A853120F490E0DC
:1015300080E00C9461080895882321F00E94EA124B
:101540000C94B4120895882321F00E94F0120C9498
:10155000B41208958F929F92AF92BF92CF92DF9272
:10156000EF92FF920F931F93CF93DF937C01D62FBF
:10157000C72FFC01058102950F70128111110E9485
:1015800007130E94AD12C82E882371F01123B1F009
:1015900080E28D0F883090F082E00E9497120E94C6
:1015A000AD1291E0C82EC926DC2ED2949FE0D9223C
:1015B000ED2DF0E0E557FE4D0C942121C12CF4CF28
:1015C0000C2F0F70C07F11F00295007F1123A9F03E
:1015D000002359F080E28D0F883010F0D11109C03E
:1015E000802F0E94EA120E94B4128D2F0E9472096D
:1015F00014C0802F0E94FA12F6CF8D2F0E944D0A40
:10160000002359F080E28D0F883010F0D11133C0E3
:10161000802F0E94F0120E94B41298E0D91639F07F
:10162000D91648F086EF8D0D8F70823020F40E941D
:1016300029080E94FF03CC2009F4FCC10E948A12F1
:1016400080FDF8C1F70112820E9484120E94851168
:10165000C7010E94270D0E948412DF91CF911F9134
:101660000F91FF90EF90DF90CF90BF90AF909F9041
:101670008F900C94A611802F0E940013CCCFFC2FCA
:10168000FF70BF2EC07FC03219F0B29480EFB82235
:10169000DD2369F0D13049F1112391F1002351F19B
:1016A000F701858180FFA1CF8F70858323C011232F
:1016B00081F0011106C00E9420138B290E949C0A10
:1016C000ACCF0130C1F70E9420138B290E941A135E
:1016D000A4CF011106C00E941D138B2D0E94A30AE6
:1016E0009CCF013009F499CFF6CF112329F00630B1
:1016F00008F093CF8B2DE2CF053008F08ECFEDCFE1
:10170000002359F38D2F0E944D0A87CF8C2F869589
:101710008695837069F0813009F07FCF8D2F9C2FE3
:101720009370111102C090E080E00E94610875CFB3
:101730008D2F9C2F9370111102C090E080E00E94C9
:101740004B086BCF112309F1D53F99F0D63FB9F083
:10175000D43F49F4809118029091190281609093CE
:101760001902809318028D2F0E947A150E9461162B
:1017700054CF80911802909119028260F0CF80912D
:101780001802909119028460EACFD53F89F0D63FC4
:10179000A9F0D43F49F480911802909119028E7FEC
:1017A00090931902809318028D2F0E94E215DECFCC
:1017B00080911802909119028D7FF2CF80911802CA
:1017C000909119028B7FECCF8C2F837009F047C06A
:1017D000111123CF2D2F229526952770220F220F2E
:1017E0006D2F6F70862E912CB12CA12C022E04C06F
:1017F000880C991CAA1CBB1C0A94D2F760E070E00C
:10180000CB01D4FF0FC06FE070E080E090E004C037
:10181000660F771F881F991F2A95D2F760957095DC
:1018200080959095C695C695C370C23051F080F4EE
:10183000682979298A299B29C13071F00E943711C2
:10184000ECCE682979298A299B290E944911E5CE85
:101850000E943711C501B4010E942511DECE869584
:10186000112311F08C2F8170882309F4D6CE2D2FEF
:10187000229526952770220F220F6D2F6F70862ECE
:10188000912CB12CA12C022E04C0880C991CAA1CEE
:10189000BB1C0A94D2F760E070E0CB01D4FF0FC00C
:1018A0006FE070E080E090E004C0660F771F881F53
:1018B000991F2A95D2F76095709580959095C69559
:1018C000C695C370C23051F080F4682979298A29FD
:1018D0009B29C13071F00E94FC119FCE68297929A3
:1018E0008A299B290E940E1298CE0E94FC11C501E4
:1018F000B4010E94EA1191CEE0E2ED0FE53108F06B
:101900004DC0F0E0E556FE4D0C942121DF708C2F88
:101910008F71112321F00E9485118D2FCFCE0E944F
:10192000A6118D2FDBCE112341F0053008F075CEC6
:101930008C2F8F710E94C91170CE063008F06DCEC9
:10194000F7CF8C2F8F71112339F00E94851165CE4E
:101950008C2F8F711123C9F30E94A6115ECE112323
:1019600029F08C2F8F710E94701157CE0E946B113D
:1019700054CE112349F0CF718C2F0E94851163E062
:101980008C2F0E948E1249CE81E00E949712023065
:1019900008F443CE82E00E9497123FCE112329F033
:1019A000011123CE8C2F8F71D0CF002369F0D93352
:1019B00009F0A8CEFFEF27EE83E0F15020408040F1
:1019C000E1F700C000009ECE8C2F8F71C5CF4C2F49
:1019D0004F706D2FC7010E9401040E949D101DCE03
:1019E00011111BCECF70C230B1F040F4CC2381F086
:1019F000C13009F012CE0E943F190FCEC43089F0D9
:101A000068F080E0C53009F008CE0E94951905CE37
:101A10000E94271902CE0E945819FFCD0E94721908
:101A2000FCCD84E0F2CF4C2F4F706D2FC7010E9488
:101A30000404F3CDDF91CF911F910F91FF90EF90B0
:101A4000DF90CF90BF90AF909F908F9008950F93AD
:101A50001F93CF93DF93EC018B819C81892B29F01D
:101A60008881998189238F3F29F4DF91CF911F913C
:101A70000F910895CE010E9428028823B1F3688156
:101A800079818A810E946D128C010E9420120E942D
:101A90002211B801CE01DF91CF911F910F910C94CB
:101AA000AA0A0E9407130E9417130E947E120E9426
:101AB000B4120E94F6160E94611690E080E00E9427
:101AC0004B0890E080E00C9461080E94F7120C949F
:101AD000510D0E946312E92FE295EF70E250EE3053
:101AE00070F4F0E0E055FE4D0C942121803F19F098
:101AF00020F4803E20F481E00895843FE1F380E00B
:101B00000895803EC0F3813FD1F7F5CF93FB88273E
:101B100080F90895CF93DF9300D000D00F92CDB716
:101B2000DEB70F900F900F900F900F90DF91CF9135
:101B30000895CF93DF9300D000D000D0CDB7DEB7AB
:101B400026960FB6F894DEBF0FBECDBFDF91CF91C2
:101B500008951F93CF93DF93C091830116E0809186
:101B600084018C1304C0DF91CF911F910895D0E0C0
:101B70001C9FF0011D9FF00D1124EB57FE4F40817B
:101B8000518162817381848195810E94990D219692
:101B9000C770E5CF4091B5015091B6016091B70192
:101BA0007091B8018091B9019091BA010C94990D8E
:101BB0001F93CF93DF938091BA01807FC1F480910E
:101BC000B7018823A1F080918301C09184016091C5
:101BD000B5017091B6014091B8015091B901D62F6D
:101BE000D723DA01A095B09516E0C81304C0DF91A1
:101BF000CF911F91089590E04115510511F0DF3FFD
:101C000031F401968770F1CF2A0F3B1F17C0189F40
:101C1000F001199FF00D1124EB57FE4F218127137E
:101C2000F0CF20812613EDCF22812111EACF23812D
:101C300034812417350740F3241B350B283C31052C
:101C400000F72091BA012F7020612093BA0126E09D
:101C5000289FF001299FF00D1124E657FE4F808147
:101C60008F708061808385EB91E00E94270DDF916A
:101C7000CF911F910C94A90DBF92CF92DF92EF925A
:101C8000FF920F931F93CF93DF93CDB7DEB761978A
:101C90000FB6F894DEBF0FBECDBF8C0185E0F80112
:101CA000DE011D9601900D928A95E1F7D8014C91C5
:101CB00011965C9111971296EC9012978091B80151
:101CC0009091B901009709F47FC12091B50130913D
:101CD000B601622F63236F3F09F476C11396CD904E
:101CE000DC90B090B701BB2009F411C1C816D90629
:101CF000D0F1F601E81BF90BCF01FF24F394883CE7
:101D0000910508F0F12C8091BA01982F907FFF2067
:101D100009F4B8C091117FC0FE2C351329C02413DB
:101D200027C0E11025C08F7080618093BA010E94A6
:101D3000CA0D85EB91E00E94270D8091BA01D80170
:101D400015968C938F2D61960FB6F894DEBF0FBE5B
:101D5000CDBFDF91CF911F910F91FF90EF90DF905A
:101D6000CF90BF900895809590958C0D9D1DC5CF07
:101D7000CD2829F0852F84238F3F09F041C180E0D1
:101D8000B82FB170DB2E80FF3CC080918301209181
:101D9000840136E0821315C04D875E878D859E8550
:101DA0000E946312292F22952F702230F0F02430E8
:101DB00018F59F70F1F0F8019581907FD1F4D12C46
:101DC0001EC090E0389FF001399FF00D1124EB57B1
:101DD000FE4F6181651306C06081641303C0628198
:101DE000E6120FC001968770D5CF9F7011F088233F
:101DF00031F3805E883018F3C8010E94270DFD2C56
:101E0000A1CFEE2009F49ECF8091BA01816080932A
:101E1000BA01F12C97CF351306C0241304C0D801A2
:101E2000EE2009F49AC04D875E878D859E850E94BD
:101E3000690D882319F1EE2009F18091BA018032F1
:101E400070F02091B5013091B60138872F83198643
:101E5000DB86CA868C87CE0107960E94270D86E016
:101E6000F801A5EBB1E001900D928A95E1F70E948F
:101E7000D80D0E94CA0DFF24F39464CFC8010E94BC
:101E8000270DF9CF911113C07C2DD98AC88A6E2DE8
:101E900089890E948A0D85EB91E00E94270D86E0DA
:101EA000E5EBF1E0DF011D928A95E9F763C0351398
:101EB00012C0241310C0E1100EC0F8018583C801C0
:101EC0000E94270DE5EBF1E086E0DF011D928A9587
:101ED000E9F7FB2C37CF4D875E878D859E850E9465
:101EE000690D882359F2EE2049F28091BA018032BF
:101EF00008F4B5CF2091B5013091B6013A8329831A
:101F00001B82DD82CC828E83CE010196A6CFC816BD
:101F1000D90698F1F601E81BF90BCF01F12C883CAA
:101F2000910508F049C0FE2CEE2009F4A7CF351327
:101F300032C0241330C08091BA0180FD23C0982F95
:101F4000907F01F1D80115968C931597903F39F049
:101F5000982F907F905F8F70892B15968C93C80176
:101F60000E94270D86E0F801A5EBB1E001900D92EB
:101F70008A95E1F70E94CA0DE5CE809590958C0D6B
:101F80009D1DCCCF86E0F801A5EBB1E001900D924C
:101F90008A95E1F7D7CE4D875E878D859E850E9415
:101FA000690D81115CCF8091BA0181608093BA0183
:101FB000C8010E94270DC6CE7C2DD98AC88A6E2DF5
:101FC00089890E948A0D6BCFEE2009F457CF4D8787
:101FD0005E878D859E850E94690DF82E882309F401
:101FE0004DCF86E0F801A5EBB1E001900D928A9506
:101FF000E1F785EB91E00E946D090E94D80DBACF00
:1020000081E08E25BDCE1F93CF93DF93CDB7DEB792
:102010002C970FB6F894DEBF0FBECDBF4F83588705
:1020200069877A878B879C87CE0107960E943C0E32
:10203000882369F08A859B85892B39F04F815885E3
:10204000842F85238F3F09F071C016E05FC086E0C2
:10205000FE013796DE01119601900D928A95E1F707
:102060008A859B85892B89F388859F8189238F3F6A
:1020700061F32091840130E0C901019687709927AE
:10208000409183014817190671F40E94650D109262
:1020900084011092830186E0E5EBF1E0DF011D92FF
:1020A0008A95E9F7D2CF96E0929FD001939FB00D29
:1020B0001124AB57BE4FFE01319601900D929A95B7
:1020C000E1F7809384010E94A90DBFCF819FC001D9
:1020D00011248B579E4F0E943C0E8823E9F0E0911B
:1020E00083011E9FF0011124EB57FE4F4081518167
:1020F00062817381848195810E94990D8091830111
:1021000090E00196877099278093830180918301E5
:10211000909184018913DACF2C960FB6F894DEBF24
:102120000FBECDBFDF91CF911F91089569857A854C
:102130008B859C850E94990D88CFEF92FF920F931B
:102140001F93CF93DF938C01892B81F0F12CEE2428
:10215000E394E8012196F8018491843770F4843087
:1021600008F05FC08130B1F08230A1F1DF91CF91F2
:102170001F910F91FF90EF900895853709F44CC09F
:1021800008F43DC09CE7980F903780F78F770E9446
:102190004D0A49C00E5F1F4FFE01849190E2980FD7
:1021A000983060F48770FE2D01C0FF0F8A95EAF722
:1021B0008F2F0E940A130E94B41202C00E9472095B
:1021C0008F2D815030F2EFE9FFE03197F1F700C039
:1021D0000000F7CF0E5F1F4FFE01849190E2980F31
:1021E000983050F48770FE2D01C0FF0F8A95EAF7F2
:1021F0008F2F0E941013DFCF0E944D0AE1CF0E5F98
:102200001F4FFE01C491C150D8F28FE99FE00197A2
:10221000F1F700C00000F7CF0E5F1F4FFE01F490F2
:10222000CFCF0E9472098E01CBCF08950E94151165
:102230006093BF017093C0018093C1019093C2016C
:102240000C94510D08950C9416110F931F93009147
:10225000BF011091C0012091C1013091C201602BDA
:10226000712B822B932B1F910F910C9416110F93AE
:102270001F930091BF011091C0012091C1013091C5
:10228000C20160237123822393231F910F910C9429
:1022900016110F931F930091BF011091C00120915F
:1022A000C1013091C20160277127822793271F91B6
:1022B0000F910C9416110C9415110C945B110E9443
:1022C0005D116093BB017093BC018093BD0190933D
:1022D000BE010C94510D60E070E0CB010C945F11D5
:1022E0000F931F9341E050E060E070E08A019B0192
:1022F00004C0000F111F221F331F8A95D2F7C90196
:10230000B8011F910F910C945F110F931F9341E03F
:1023100050E060E070E004C0440F551F661F771F57
:102320008A95D2F78091BB019091BC01A091BD012B
:10233000B091BE018A019B01082B192B2A2B3B2B44
:10234000C901B8011F910F910C945F110F931F9356
:1023500041E050E060E070E004C0440F551F661F8C
:10236000771F8A95D2F7CB01BA0160957095809559
:1023700090950091BB011091BC012091BD0130915D
:10238000BE0160237123822393231F910F910C942C
:102390005F110F931F9341E050E060E070E004C0D4
:1023A000440F551F661F771F8A95D2F78091BB0196
:1023B0009091BC01A091BD01B091BE018A019B0129
:1023C000082719272A273B27C901B8011F910F9118
:1023D0000C945F110F931F930091BB011091BC01EE
:1023E0002091BD013091BE01602B712B822B932B6C
:1023F0001F910F910C945F110F931F930091BB01DC
:102400001091BC012091BD013091BE016023712368
:10241000822393231F910F910C945F110F931F93AD
:102420000091BB011091BC012091BD013091BE0112
:1024300060277127822793271F910F910C945F11BA
:102440000895BF92CF92DF92EF92FF920F931F9366
:10245000CF93DF938C01C090BB01D090BC01E09082
:10246000BD01F090BE018091BF019091C001A0918B
:10247000C101B091C201C82AD92AEA2AFB2ACFE1B8
:10248000D0E0BC2ED701C6010C2E04C0B695A7958E
:10249000979587950A94D2F780FD0EC0219788F70B
:1024A000B12C8B2DDF91CF911F910F91FF90EF9069
:1024B000DF90CF90BF900895B8018C2F0E94210427
:1024C000019761F3EECFCF93DF93EC010E942112CD
:1024D000BE01DF91CF910C942104CB010C946312C7
:1024E000682F80910001909101010C94C413682F12
:1024F00080910001909101010C94CF138091000113
:10250000909101010C94DA138091C3018595859512
:10251000859508958091C3018770089598E0899FFB
:1025200090011124622B6093C3010C94851190914A
:10253000C301809589238093C301282F277061F4FC
:10254000282F082E000C330B9217130629F08595BF
:10255000859585950C94A61108959091C301977067
:1025600081E009F480E00895E0910001F09101011B
:102570008091E7018083E0910001F0910101808169
:102580009091E601892B8083E0910001F091010197
:1025900080819091E501892B80839091C4019923DA
:1025A00081F0E0910001F09101018081892B80830D
:1025B00080910001909101010E9467138111109296
:1025C000C40180910001909101010C943508809123
:1025D000E70108959091E701892B8093E701089521
:1025E00080959091E70198239093E70108951092C8
:1025F000E70108959091E601892B8093E601089503
:1026000080959091E60198239093E60108951092A9
:10261000E60108959091E501892B8093E5010895E5
:1026200080959091E50198239093E501089510928B
:10263000E50108958093C40108951092C40108959E
:102640008091C40108956DEE7EEF90E080E00E94DD
:10265000612160E082E090E00E944F2160E083E031
:1026600090E00E944F2160E084E090E00E944F21C2
:1026700060E085E090E00E944F2160E086E090E01D
:102680000C944F2190E080E00E94492121E08D3E92
:102690009E4F09F020E0822F089582E090E00C9494
:1026A000412183E090E00C94412184E090E00C947F
:1026B0004121682F84E090E00C944F2186E090E067
:1026C0000C944121682F86E090E00C944F21FC018E
:1026D00031969C01205E3F4F80E0919191118F5F78
:1026E000E217F307D1F708959C01FC0132969FEFA2
:1026F00080E04191461751F09F3F19F4411101C00C
:10270000982F8F5F8E31A9F79F3F09F40895290F05
:10271000311D97FD3A95F90162830895FC013296C7
:1027200080962191261303C0DF0111971C92E817B0
:10273000F907B9F70895E62FE695E695E695EF31A6
:1027400069F0E80FF92FF11D677021E030E001C05A
:10275000220F6A95EAF78181822B81830895E62F03
:10276000E695E695E695EF3171F0E80FF92FF11D4A
:10277000677021E030E001C0220F6A95EAF72095EA
:10278000818128232183089520911201222329F099
:1027900020911E0227FD0C949B130C94741320911E
:1027A0001201222329F020911E0227FD0C94AF1361
:1027B0000C948E13FC01319680961192E817F9075C
:1027C000E1F7089580912502843051F11092E901DA
:1027D00088E190E020E40FB6F894A895809360001B
:1027E0000FBE2093600080E00E94920380E00E9470
:1027F000FF0383B7817F846083BF83B7816083BF1A
:102800007894889583B78E7F83BF0FB6F894A89588
:1028100080916000886180936000109260000FBE1C
:10282000089508950895CF930E9411140E944D07B2
:102830000E941214C0E08C2F0E941A08892B31F4D8
:10284000CF5FC530C1F780E0CF91089581E0FCCF24
:102850000E94650D0E940E190E9429080C94FF0326
:102860001F921FB61F9211248F939F93AF93BF9314
:102870008091E901811113C080911A0290911B028D
:10288000A0911C02B0911D024196A11DB11D809323
:102890001A0290931B02A0931C02B0931D02BF91D9
:1028A000AF919F918F911F901FBE1F90189582E04E
:1028B00084BD93E095BD9AEF97BD80936E00089517
:1028C0002FB7F89480911A0290911B02A0911C02DC
:1028D000B0911D022FBF0895CF92DF92EF92FF9229
:1028E0000F931F932FB7F89440911A0250911B0237
:1028F00060911C0270911D022FBF6A017B01EE24C2
:10290000FF248C0130E020E0C016D106E206F30679
:1029100050F0481B590BCA011F910F91FF90EF9087
:10292000DF90CF90089541505109F3CF78941F92D2
:102930001FB61F9211248F939F93AF93BF938091E3
:102940001A0290911B02A0911C02B0911D020196E7
:10295000A11DB11D80931A0290931B02A0931C022B
:10296000B0931D02BF91AF919F918F911F901FBE99
:102970001F90189581E08093E00080E28093D8005A
:102980001092C9008FE19EE40197F1F700C00000AA
:1029900087E090EBDC0180932E0290932F02A093AE
:1029A0003002B093310288E19CE00FB6F894A8950C
:1029B000809360000FBE90936000FFCF0E9442138F
:1029C000811102C00E9423130E944D138093E801DD
:1029D0000E94551390E090931F0280931E020E9464
:1029E0005113682F70E090E080E00C9423118091E7
:1029F000EC0180FF12C06091050185E0689FB00185
:102A00001124759567957595679560387105A8F5DA
:102A100061157105A1F1862F089581FF09C06091AC
:102A2000050185E0689FB001112475956795EDCF8C
:102A30006091050182FD0AC08091ED018823D1F0EB
:102A40009091040160910501891728F085E0689F45
:102A5000B0011124DACF869FB001112485E0869F52
:102A60009001879F300D1124692F70E0C9010E94E9
:102A7000EB20CBCF65E070E0CECF8FE7089581E00B
:102A800008958091EC0180FF0CC06091030170E01B
:102A900075956795759567956115710549F1862F4F
:102AA000089581FF06C06091030170E075956795F8
:102AB000F3CF6091030182FD0BC09091ED0199234A
:102AC000A1F06091020180910301961738F0682F00
:102AD00070E06038710500F38FE70895899FC001A9
:102AE000112470E00E94EB20F4CF61E070E0D7CFBA
:102AF00081E00895803F31F40E94F714819580931E
:102B0000F0010895813F19F40E94F714F8CF823F35
:102B100031F40E94F71481958093EF010895833F6B
:102B200019F40E94F714F8CF893F29F40E94411547
:102B30008093F10108958A3F21F40E944115819507
:102B4000F7CF8B3F31F40E94411581958093F201BC
:102B500008958C3F19F40E944115F8CF843F31F459
:102B60008091EE0181608093EE010895853F21F40C
:102B70008091EE018260F7CF863F21F48091EE01D3
:102B80008460F1CF873F21F48091EE018860EBCF24
:102B9000883F21F48091EE018061E5CF8D3F31F4D3
:102BA0008091EC0181608093EC0108958E3F21F4C7
:102BB0008091EC018260F7CF8F3FB9F78091EC01F3
:102BC0008460F1CF9091EF01803F41F48091F0015A
:102BD00087FD1092F001992371F00895813F29F447
:102BE0008091F0011816ACF3F6CF823F81F497FF85
:102BF000F2CF1092EF018091F0019091F101892BB9
:102C00009091F201892B49F71092ED010895833FCD
:102C100019F4191674F3DFCF893F39F48091F1016B
:102C20001816CCF61092F101D6CF8A3F29F4809184
:102C3000F10187FFD0CFF6CF8B3F39F48091F201BD
:102C400087FFC9CF1092F201C6CF8C3F29F4809143
:102C5000F2011816BCF3BFCF843F31F48091EE012E
:102C60008E7F8093EE01B7CF853F21F48091EE01F6
:102C70008D7FF7CF863F21F48091EE018B7FF1CFDE
:102C8000873F21F48091EE01877FEBCF883F21F4CD
:102C90008091EE018F7EE5CF8D3F31F48091EC0184
:102CA0008E7F8093EC0197CF8E3F21F48091EC01D1
:102CB0008D7FF7CF8F3F09F08ECF8091EC018B7F16
:102CC000F0CF8EEE91E00E9440080E946014909335
:102CD000EB018093EA0108951F93CF93DF938091D6
:102CE000EA019091EB010E946C14AC019091ED010E
:102CF0002091060130E0911106C0209107018AE081
:102D0000289F900111244217530778F02091EF017A
:102D1000C091F001D091F1011091F201211109C08F
:102D20008C2F8D2B812B09F05DC0DF91CF911F91EE
:102D300008959F3F19F09F5F9093ED01121624F4C0
:102D40000E94F7148093EF018091EF0187FF05C087
:102D50000E94F71481958093EF011C1624F40E94C1
:102D6000F7148093F0018091F00187FF05C00E9465
:102D7000F71481958093F0014091EF01442379F09D
:102D80003091F001332359F025EB4203A0011124C7
:102D90005093EF013203900111243093F0011D167E
:102DA00024F40E9441158093F1018091F10187FF85
:102DB00005C00E94411581958093F101111624F4FC
:102DC0000E9441158093F2018091F20187FF05C0B6
:102DD0000E94411581958093F201DF91CF911F915F
:102DE0000C9461169F3F09F0A6CFB7CF85E0EEEEB9
:102DF000F1E0DF011D928A95E9F71092ED01109242
:102E0000EC010895833081F128F4813059F082304B
:102E1000D1F00895853009F449C0B8F1863009F43D
:102E200056C0089580910701482F460F5527551F1A
:102E30004F3F510524F4680F6093070108958FEF09
:102E400080930701089580910601482F460F55276A
:102E5000551F4F3F510524F4680F609306010895F4
:102E60008FEF80930601089580910501482F460F4A
:102E70005527551F4F3F510524F4680F60930501F6
:102E800008958FEF80930501089580910401482FE4
:102E9000460F5527551F4F3F510524F4680F609387
:102EA000040108958FEF8093040108958091030138
:102EB000482F460F5527551F4F3F510524F4680FE3
:102EC0006093030108958FEF80930301089580912B
:102ED0000201482F460F5527551F4F3F510524F437
:102EE000680F6093020108958FEF809302010895A7
:102EF000833011F128F4813049F0823091F0089547
:102F0000853081F120F18630C1F10895809107016B
:102F1000681720F4861B809307010895109207011B
:102F2000089580910601681720F4861B809306019E
:102F3000089510920601089580910501681720F404
:102F4000861B8093050108951092050108958091D4
:102F50000401681720F4861B8093040108951092E1
:102F60000401089580910301681720F4861B809363
:102F700003010895109203010895809102016817DA
:102F800020F4861B80930201089510920201089597
:102F90000F931F9341E050E060E070E08A019B01D5
:102FA00004C0000F111F221F331F8A95D2F7C901D9
:102FB000B8010E9423111F910F910C94650D873267
:102FC00008F043C08E3108F089C0803109F47BC01D
:102FD000C8F4873009F469C028F4863009F45CC06D
:102FE00080E008958B3009F455C08E30C9F7909178
:102FF000E801892F8B7F92FF84608093E80182FD36
:1030000020C048C0863109F445C068F4813141F7D9
:103010000E94650D90911E02892F97FB87F98058B9
:1030200080931E0237C08931A9F18B31C9F6909186
:10303000E801892F8D7F91FF82608093E80181FFF5
:1030400029C08091E80181603BC0883319F150F4B8
:10305000893221F0853311F0873211F680E00E9429
:10306000C81718C08334D1F328F48A3308F4B8CFD2
:103070008953F5CF883409F0B3CF0E94650D2FEF47
:1030800083ED90E3215080409040E1F700C00000C4
:103090000E94BA1481E008958091E801807F8093B6
:1030A000E80181E08093F40108959091E801892F6F
:1030B0008E7F90FF81608093E80180FDEBCF817F60
:1030C0008093E801E7CF9091E801892F877F93FFF4
:1030D00088608093E80183FDB4CFDCCF8D51BFCFF2
:1030E00080E008950C9470188E518A3030F4E82FE7
:1030F000F0E0E95DFE4F8081089580E00895CF9370
:10310000C82F8091F4018130D1F0882331F08230D2
:10311000D1F11092F40180E010C0E0910001F09133
:10312000010180818232B9F78C2F0E9470188111C1
:103130001EC08C2F0E94DF178170CF910895E091FF
:103140000001F09101018081823271F38C2F0E9485
:10315000721881110AC0C43199F060F4CB3029F0A3
:10316000C03151F782E08093F40181E0E5CF81E046
:1031700090E0E2CFC93221F0C833B9F380E0DCCF70
:103180001092F401FBCFC93219F188F4C43101F176
:1031900020F4C73081F181E0D0CF82EE8C0F8630F1
:1031A000D0F78C2F0E9474188093F301F4CFCE34A3
:1031B00001F140F46AE0CB3471F78091F3010E9491
:1031C0000217E9CFC13579F061E0C235B1F3E3CF41
:1031D0008091F301882319F01092F301DCCF81E094
:1031E0008093F401AACF61E08091F3010E947817E7
:1031F000D2CF6AE0F9CF8EE18093070182E380931A
:1032000006018AE08093050184E18093040188E04F
:103210008093030188E280930201BDCF0E94421394
:10322000811102C00E9423130E945E13809320022A
:103230008A3020F081708860809320028091200283
:1032400080FF03C086950C94920380E0FCCF8091B0
:103250002002982F9695943030F49F5F990F8170DB
:10326000892B80932002809120028160809320022C
:103270000E9462138091200286950C9492038091A3
:103280002002982F9E7F79F08250809320028E7FBB
:1032900091E009F490E08091200290FB80F9809306
:1032A00020020E9462138091200286950C94920362
:1032B00090912002892F8E7F90FF81608093200261
:1032C000813019F483E080932002809120020E94D3
:1032D00062138091200280FF03C086950C949203B4
:1032E00080E0FCCF90912002892F86958F5F8F77A9
:1032F00091708530B8F4880F892B809320028091DB
:1033000020028E7F91E009F490E08091200290FBF2
:1033100080F9809320020E9462138091200286959A
:103320000C94920390932002EACF853008F084E059
:10333000982F990F809120028170892B8093200211
:103340008E7F91E009F490E08091200290FB80F95B
:10335000809320020E9462138091200286950C9433
:1033600092038091150208950F931F93CF93DF93DB
:1033700000D00F92CDB7DEB78C010E94231C8230A3
:1033800011F0843019F583E089831B830A838093CD
:10339000E9008FEF9091E800815095FD06C095ED12
:1033A0009A95F1F700008111F5CF8091E80085FF33
:1033B0000DC050E040E063E070E0CE0101960E9455
:1033C000401C8091E8008E778093E8000F900F906A
:1033D0000F90DF91CF911F910F910895CF93DF93BD
:1033E00000D00F92CDB7DEB720912502243031F501
:1033F00022E02983805891099B838A8383E080930C
:10340000E9008FEF9091E800815095FD06C095EDA1
:103410009A95F1F700008111F5CF8091E80085FFC2
:103420000DC050E040E063E070E0CE0101960E94E4
:10343000401C8091E8008E778093E8000F900F90F9
:103440000F90DF91CF910895CF93DF93EC010E940D
:10345000231C823011F08430F9F482E08093E9007B
:103460008FEF9091E800815095FD06C095ED9A95FB
:10347000F1F700008111F5CF8091E80085FF0CC0C5
:1034800050E040E065E070E0CE010E94401C809179
:10349000E8008E778093E800DF91CF910895CF9375
:1034A000DF93EC010E94231C823011F08430F9F488
:1034B000809112018823F1F080911E0287FF1AC0CB
:1034C00084E08093E9008FEF9091E800815095FDB2
:1034D00006C095E19A95F1F700008111F5CF809132
:1034E000E80050E040E060E270E085FD1AC0DF9146
:1034F000CF91089581E08093E9008FEF9091E800EB
:10350000815095FD06C095ED9A95F1F70000811167
:10351000F5CF8091E80085FFEACF50E040E068E019
:1035200070E0CE010E94401C8091E8008E7780936D
:10353000E80080E2FE01A5EFB1E001900D928A95CE
:10354000E1F7D5CF80912402811109C00E94CE1DE0
:103550000E942B1E8091E20084608093E200089517
:10356000109224020895089508950C94281442E0BE
:1035700061EC81E00E944C1D42E061EC82E00E941F
:103580004C1D42E061EC83E00E944C1D42E261EC84
:1035900084E00C944C1D80912702833009F455C0BF
:1035A00030F4813071F1823009F491C008958A308D
:1035B00009F47DC08B3009F463C0893009F044C040
:1035C00080912602813209F03FC080912A029091B9
:1035D0002B02009711F00397B9F58091E800877FDF
:1035E0008093E8008091E80082FF2AC08091F1007A
:1035F000809315028091E8008B778093E8000C940B
:10360000801D80912602813AF9F48091E800877F3D
:103610008093E80080912A0290912B02892B61F41B
:1036200060E285EF91E070E00E948F1C8091E800DD
:103630008B778093E800089560E090E080E0F3CF1E
:10364000809125028111CECF089580912602813A82
:10365000D9F780912A0290912B02892BA9F78091AA
:10366000E800877F8093E8008091E80080FFFCCF2E
:10367000809112018093F1008091E8008E77BDCF98
:1036800080912602813201F780912A0290912B02CB
:10369000892BD1F68091E800877F8093E8000E9413
:1036A000801D80912802809312010C94650D8091F9
:1036B0002602813249F68091E800877F8093E800F6
:1036C0000E94801D809129028093160208958091A6
:1036D0002602813A09F0B8CF8091E800877F809375
:1036E000E8008091E80080FFFCCF80911602C2CFF5
:1036F00084B7877F84BF0FB6F894A8958091600047
:10370000886180936000109260000FBE80E8809313
:103710006100109261000E9478080E94CE1D0E94F4
:103720002B1E8091E20084608093E20078940E94D6
:10373000AB200E947C0888E091E00E9424088091E0
:103740002502853019F00E948408F9CF0E94E21307
:1037500080912302882399F30E941314882379F31C
:103760000E942A1CECCF0C94B51B292F3327233041
:10377000310521F168F42130310509F449C02230C6
:10378000310509F44AC090E080E030E020E029C033
:103790002132310581F122323105A9F764307105FA
:1037A00090F7FB01EE0FFF1FEB5CFE4F2081318194
:1037B0006F5C7E4FFB01808190E013C099278130C0
:1037C000910599F0009741F08230910589F00397B7
:1037D000D1F6E8EDF1E002C0EAEFF1E0849190E08B
:1037E0009F01FA01318320830895EEEEF1E0F6CFD8
:1037F000EEEDF1E0F3CF6430710528F6660F771F28
:10380000FB01E35CFE4F2081318189E090E0E9CF4C
:1038100082E190E02BE632E0E4CF8DE690E02EEFFF
:1038200031E0DFCF0895CF93C82F0E94121CC093C0
:103830001702CF91089580912502843011F482E01F
:10384000089581E0089580911702811102C00C94BF
:103850001B1C089580E189BD82E189BD09B400FE89
:10386000FDCF8091D8008F7D8093D8008091E000BB
:1038700082608093E0008091E00081FDFCCF08959C
:10388000AF92BF92CF92DF92FF920F931F93CF938D
:10389000DF936C01EB018A010E949F1DF82E8111BC
:1038A00023C00115110539F0F80180819181C81BF1
:1038B000D90BC80ED91EB12CA12C2097A9F080914C
:1038C000E80085FD22C08091E8008E778093E800B3
:1038D00001151105A1F0F80180819181A80EB91E92
:1038E000B182A08285E0F82E8F2DDF91CF911F91BC
:1038F0000F91FF90DF90CF90BF90AF9008950E94FE
:103900009F1D8823D1F2F82EEFCFF60181916F0130
:103910008093F1002197FFEFAF1ABF0ACECFFC01D1
:1039200080912C0290912D0286179707A0F06115C7
:10393000710529F49091E8009E779093E80090E05B
:103940006115710551F4911108C08091E80082FF62
:1039500034C080E00895BC01F2CF80912502882315
:10396000C1F18530C1F18091E80083FD30C08091C4
:10397000E80082FDEACF8091E80080FFE1CF8091EE
:10398000F3002091F200382F6115710519F02830ED
:10399000310558F091E02830310509F090E0209190
:1039A000E8002E772093E800CBCF81918093F1003F
:1039B000615071092F5F3F4FE7CF80912502882327
:1039C00041F0853041F08091E80083FFBECF81E077
:1039D000089582E0089583E00895FC0180912C020F
:1039E00090912D0286179707A0F06115710529F4B3
:1039F0008091E8008E778093E80090E06115710572
:103A000051F4911108C08091E80082FF35C080E038
:103A10000895BC01F2CF809125028823C9F1853039
:103A2000C9F18091E80083FD31C08091E80082FDFA
:103A3000EACF8091E80080FFE1CF8091F3002091F0
:103A4000F200382F6115710519F02830310558F052
:103A500091E02830310509F090E08091E8008E7700
:103A60008093E800CBCF84918093F1003196615030
:103A700071092F5F3F4FE6CF80912502882341F0E7
:103A8000853041F08091E80083FFBDCF81E008954B
:103A900082E0089583E00895982F973028F08F7082
:103AA0008093E90081E008959093E900242F762F18
:103AB00050E0981731F07091EC002091ED0050919A
:103AC000F00021FD02C09F5FE8CF3091EB003E7F08
:103AD0003093EB003091ED003D7F3093ED0030915D
:103AE000EB0031603093EB007093EC002093ED001D
:103AF0005093F0002091EE0027FDE5CF80E008957F
:103B00008091260287FF13C08091E80082FF06C0E3
:103B10008091E8008B778093E80004C080912502B3
:103B20008111F2CF0895809125028823D9F38091E5
:103B3000E80080FFF8CF8091E8008E77ECCF2091ED
:103B4000E4003091E50085E6A9019091EC0090FF3A
:103B500006C09091E80090FF06C080E00895909123
:103B6000E80092FDFACF90912502992389F09530D3
:103B700089F09091EB0095FD0FC02091E400309109
:103B8000E5004217530709F38150F1F684E00895E8
:103B900082E0089583E0089581E008950E943C1E2C
:103BA0000E94441EE0EEF0E0808181608083E8EDB9
:103BB000F0E080818F77808319BCA7EDB0E08C9115
:103BC0008E7F8C9380818F7E808310922402089553
:103BD0000F931F93CF93DF930E943C1E0E94441EBD
:103BE000C8EDD0E088818F7788838881806888835A
:103BF00088818F7D888319BC109225021092210242
:103C0000109223021092220200EE10E0F80180814F
:103C10008B7F808388818160888342E060E080E0E0
:103C20000E944C1DE1EEF0E080818E7F8083E2EE09
:103C3000F0E0808181608083808188608083F801EA
:103C400080818E7F8083888180618883DF91CF919E
:103C50001F910F910895E8EDF0E080818F7E8083C1
:103C6000E7EDF0E080818160808384E082BF81E0C5
:103C7000809324020C94E81DE8EDF0E080818E7FB3
:103C800080831092E20008951092DA001092E10011
:103C900008951F920F920FB60F9211242F933F9306
:103CA0004F935F936F937F938F939F93AF93BF9344
:103CB000EF93FF938091E10082FF0BC08091E200BF
:103CC00082FF07C08091E1008B7F8093E1000E941A
:103CD000AA208091DA0080FF19C08091D80080FF6F
:103CE00015C08091DA008E7F8093DA008091D90030
:103CF00080FF94C080E189BD82E189BD09B400FEE6
:103D0000FDCF81E0809325020E94A21A8091E100FC
:103D100080FF19C08091E20080FF15C08091E20011
:103D20008E7F8093E2008091E20080618093E200C8
:103D30008091D80080628093D80019BC85E0809380
:103D400025020E94B41A8091E10084FF29C080916D
:103D5000E20084FF25C080E189BD82E189BD09B40C
:103D600000FEFDCF8091D8008F7D8093D800809198
:103D7000E1008F7E8093E1008091E2008F7E80934E
:103D8000E2008091E20081608093E2008091210254
:103D9000882309F449C084E0809325020E94B51A63
:103DA0008091E10083FF29C08091E20083FF25C05C
:103DB0008091E100877F8093E10082E0809325027B
:103DC000109221028091E1008E7F8093E10080912A
:103DD000E2008E7F8093E2008091E2008061809318
:103DE000E20042E060E080E00E944C1D8091F00023
:103DF00088608093F0000E94B31AFF91EF91BF9109
:103E0000AF919F918F917F916F915F914F913F9172
:103E10002F910F900FBE0F901F90189519BC109204
:103E200025020E94B01A72CF8091E30087FD02C084
:103E300081E0B2CF83E0B0CF1F920F920FB60F9206
:103E400011242F933F934F935F936F937F938F939F
:103E50009F93AF93BF93CF93EF93FF93C091E900EC
:103E6000CF708091EC001092E9008091F000877F84
:103E70008093F00078940E94581F1092E90080917E
:103E8000F00088608093F000C093E900FF91EF910B
:103E9000CF91BF91AF919F918F917F916F915F91E2
:103EA0004F913F912F910F900FBE0F901F9018953B
:103EB0001F93CF93DF93CDB7DEB7AA970FB6F894D1
:103EC000DEBF0FBECDBF86E292E02091F100FC0183
:103ED0002193CF01F2E08E329F07B9F70E94CB1AEF
:103EE0008091E80083FF1EC18091260290912702F5
:103EF0009A3008F017C1E92FF0E0E254FE4D0C941F
:103F00002121803899F0823809F00CC180912A0271
:103F10008F70873008F006C18093E9008091EB0034
:103F200085FB882780F91092E90006C08091220263
:103F300090912302911182609091E800977F909375
:103F4000E8008093F1001092F1008091E8008E77F4
:103F5000E5C0882309F4D3C0823009F0E3C0809122
:103F600028028111D6C080912A028F702FEF280F6E
:103F7000263008F0D7C08093E9002091EB0020FFA5
:103F8000C8C0933031F48091EB0080628093EB00E5
:103F9000C0C09091EB0090619093EB0021E030E085
:103FA00001C0220F8A95EAF72093EA001092EA00F6
:103FB0008091EB008860EACF8111B4C01091280293
:103FC0001F778091E3008078812B8093E3008091BC
:103FD000E800877F8093E8000E94801D8091E800C0
:103FE00080FFFCCF8091E30080688093E30082E053
:103FF000111183E08093250295C08058823008F02B
:1040000091C080912802909129028C3D23E0920773
:10401000A1F583E08A838AE289834FB7F894DE01B1
:10402000139620E03EE051E2E32FF0E0509357007A
:10403000E49120FF03C0E295EF703F5FEF708E2F99
:1040400090E0EA30C0F0C7968D939D932F5F2431A6
:1040500059F74FBF8091E800877F8093E8006AE2BC
:1040600070E0CE0101960E948F1C8091E8008B7752
:104070008093E80057C0C096E7CF60912A02709104
:104080002B02AE014F5F5F4F0E94B31BBC01892B17
:1040900009F448C09091E800977F9093E8008981E7
:1040A0009A810E94ED1CE1CF8038E1F58091E80013
:1040B000877F8093E800809121028093F10045CFB3
:1040C000811130C090912802923060F58091E80013
:1040D000877F8093E800909321020E94801D809149
:1040E0002102882311F084E005C08091E30087FD60
:1040F000FACF81E0809325020E94B71A13C0809105
:104100002802813079F481E0933009F080E08093D7
:1041100023021092E9008091E800877F8093E800F5
:104120000E94801D8091E80083FF0AC08091E80012
:10413000877F8093E8008091EB0080628093EB00A2
:10414000AA960FB6F894DEBF0FBECDBFDF91CF9118
:104150001F9108950895CF9380912502882399F0A7
:10416000C091E900CF708091EC0080FD0EC080E02E
:10417000C82B1092E9008091E80083FD0E94581F2F
:10418000CF70C093E900CF91089580E8F1CFDB01B3
:104190008F939F930E943621BF91AF91A29F800D74
:1041A000911DA39F900DB29F900D11240895AA1BFD
:1041B000BB1B51E107C0AA1FBB1FA617B70710F012
:1041C000A61BB70B881F991F5A95A9F78095909544
:1041D000BC01CD01089597FB072E16F4009407D07B
:1041E00077FD09D00E94D72007FC05D03EF49095BA
:1041F00081959F4F0895709561957F4F0895A1E235
:104200001A2EAA1BBB1BFD010DC0AA1FBB1FEE1F50
:10421000FF1FA217B307E407F50720F0A21BB30B9B
:10422000E40BF50B661F771F881F991F1A9469F717
:1042300060957095809590959B01AC01BD01CF0173
:104240000895EE0FFF1F0590F491E02D0994A29FB1
:10425000B001B39FC001A39F700D811D1124911D5A
:10426000B29F700D811D1124911D08950E94272178
:10427000A59F900DB49F900DA49F800D911D1124BA
:104280000895F999FECF92BD81BDF89A992780B51E
:104290000895A8E1B0E042E050E00C946921262F97
:1042A000F999FECF92BD81BDF89A019700B402162C
:1042B00039F01FBA20BD0FB6F894FA9AF99A0FBEDA
:1042C00008950196272F0E9450210C944F21DC0164
:1042D000CB01FC01F999FECF06C0F2BDE1BDF89A11
:1042E000319600B40D9241505040B8F70895F894BB
:1042F000FFCFC602D202D602DA02DE02E202E602F4
:10430000EA02EE02F202F602FA02FE0202030603DB
:104310000A030E031203E00AE00A3F0B3F0B860B71
:10432000A20B0D0B0D0BE40B0D0B7C0C7C0CE70CA6
:10433000F00C0D0B130D860C860C860C860C860C6F
:10434000860C860C860C860C860C860C860C860CDD
:10435000860C860C860C930CA10CA80CAF0CB90C27
:10436000760D760D7F0D7F0D810D7F0D7F0D7F0DFD
:10437000760D760D860D7F0D7F0D860D811FA91F91
:104380009220A91F9220DC1FFD1F92205420602044
:10439000C5012808140A321EB1194F1A241AEE1941
:1043A000B41901F0F1C66766379431303534979609
:1043B00033F49091F6F79501020304050607080906
:1043C00000404D36393903EC02B6027D0210022955
:0643D0000242025B020044
:00000001FF
